:100000000C945D000C9476040C944F040C947A00CC
:100010000C947A000C947A000C947A000C949D0451
:100020000C947A000C947A000C947A000C947A0068
:100030000C947A000C947A000C947A000C947A0058
:100040000C9405040C947A000C947A000C947A00B9
:100050000C947A000C947A000C947A000C947A0038
:100060000C947A000C947A00000000002400270011
:100070002A00010204081020408001020408102018
:1000800001020408102000000000250028002B00B9
:10009000040404040404040402020202020203032E
:1000A0000303030302000000080002010000030430
:1000B0000700000000000000000011241FBECFEF69
:1000C000D8E0DEBFCDBF11E0A0E0B1E0E2ECFBE0A4
:1000D00002C005900D92A630B107D9F721E0A6E045
:1000E000B1E001C01D92A032B207E1F70E94F9040D
:1000F0000C94DF050C94000090E0FC01EB55FF4FE1
:100100002491FC01EE58FF4F3491FC01E057FF4F62
:10011000E491EE2309F43CC0222339F1233091F01D
:1001200038F42130A9F0223001F584B58F7D12C05A
:10013000273091F02830A1F02430B9F4809180006C
:100140008F7D03C0809180008F77809380000DC0E9
:1001500084B58F7784BD09C08091B0008F7703C0CC
:100160008091B0008F7D8093B000F0E0EE0FFF1F14
:10017000EA57FF4FA591B4919FB7F894611104C05D
:100180008C913095382302C0EC913E2B3C939FBF5D
:100190000895CF93DF9390E0FC01EE58FF4F249138
:1001A000FC01E057FF4F8491882361F190E0880FB4
:1001B000991FFC01E859FF4FC591D491FC01EA5702
:1001C000FF4FA591B491611109C09FB7F894888140
:1001D000209582238883EC912E230BC0623061F43A
:1001E0009FB7F8948881322F309583238883EC91D0
:1001F0002E2B2C939FBF06C08FB7F894E8812E2B2F
:1002000028838FBFDF91CF910895CF93DF93EC01C7
:1002100061E080E00E94C900209711F460E004C012
:10022000CF3FD10531F461E080E0DF91CF910C94B4
:100230007C00E5EAF0E0E491E330F9F048F4E130E5
:10024000B9F0E230A1F584B5806284BDC8BD34C088
:10025000E730E9F0E83019F1E43049F580918000A9
:10026000806280938000D0938B00C0938A0024C06A
:1002700084B5806884BDC7BD1FC080918000806840
:1002800080938000D0938900C093880015C080912E
:10029000B00080688093B000C093B3000DC080911F
:1002A000B00080628093B000C093B40005C0C03835
:1002B000D1050CF0B8CFB2CFDF91CF9108958F92D6
:1002C0009F92AF92BF92CF92DF92EF92FF921F93D5
:1002D000CF93DF93EC0180910401813021F08F3FB7
:1002E00009F0F1C104C0E4EAF0E014916FC081E0CC
:1002F00080930401E4EAF0E014911F3F09F4E3C1A4
:10030000113009F440C030F1123009F05FC0109292
:10031000B0001092B1008091B00082608093B00074
:100320008091B10081608093B100E1E9F0E0E49157
:10033000F0E0EE0FFF1FEA57FF4F859194919093E5
:10034000110180931001E3E7F0E0E491E0930F01E5
:1003500012E0B4C114BC15BC84B5826084BD85B5FF
:10036000816085BDE1E9F0E0E491F0E0EE0FFF1F70
:10037000EA57FF4F85919491E3E7F0E0E491E09331
:10038000130110E09BC110928000109281008091B7
:1003900081008860809381008091810081608093DA
:1003A0008100E1E9F0E0E491F0E0EE0FFF1FEA5791
:1003B000FF4F85919491E3E7F0E0E491E09312011F
:1003C00061E081E00E94C90011E0A5C017FD7BC17A
:1003D00061E081E00E94C900812F8D7F09F09BC000
:1003E0006E01E12CF12C60E072E18AE790E0A70158
:1003F00096010E949E0549015A01BA01A901415086
:100400005109610971094F3F51056105710509F0F5
:1004100008F445C060E472E48FE090E0A701960123
:100420000E949E05BA01A901415051096109710953
:100430001230E9F44F3F51056105710509F008F4E8
:10044000DDC060E970ED83E090E0A70196010E94B5
:100450009E05BA01A90141505109610971094F3F37
:1004600051056105710509F020F583E04DC04F3F4E
:10047000510561057105A9F0A0F068E478EE81E00E
:1004800090E0A70196010E949E05BA01A901415082
:10049000510961097109112309F4E1C0D8C081E053
:1004A00001C082E0111130C095B5987F892B85BDC0
:1004B00069C068E478EE81E090E0A70196010E94AF
:1004C0009E05BA01A90141505109610971094F3FC7
:1004D00051056105710509F008F48EC064E274EFFE
:1004E00080E090E0A70196010E949E05BA01A90153
:1004F00041505109610971094F3F5105610571056D
:1005000011F008F07DC085E09091B100987F892BB3
:100510008093B10031C06E01E12CF12C60E072E1FA
:100520008AE790E0A70196010E949E05BA01A90101
:1005300041505109610971094115510581E0680770
:10054000710580F068E478EE81E090E0A701960103
:100550000E949E05BA01A901415051096109710922
:1005600083E001C081E0113039F490918100987FDF
:10057000892B8093810018C01130B1F0123049F1FD
:100580001111A1C047BD8FEF9FEFDC0180931C01CB
:1005900090931D01A0931E01B0931F0180916E00E6
:1005A000826080936E008FC05093890040938800D2
:1005B0008FEF9FEFDC018093180190931901A093B6
:1005C0001A01B0931B0180916F00826080936F00CD
:1005D0007AC04093B3008FEF9FEFDC01809314014A
:1005E00090931501A0931601B093170180917000AC
:1005F00082608093700067C084E086CF82E084CF01
:1006000062E17AE780E090E0A70196010E949E05F2
:10061000BA01A90141505109610971094F3F5105C2
:100620006105710591F088F0D501C4012AE0B59506
:10063000A795979587952A95D1F7AC01BD014150B3
:1006400051096109710987E05FCF86E05DCF4F3FB7
:1006500051056105710509F098F684E023CF4F3FFD
:1006600051056105710541F138F162E17AE780E0F9
:1006700090E0A70196010E949E05BA01A901415090
:100680005109610971094F3F51056105710591F0EB
:1006900088F0D501C4013AE0B595A795979587955F
:1006A0003A95D1F7AC01BD01415051096109710979
:1006B00085E0FACE84E0F8CE83E0F6CE61E081E01A
:1006C0000E94C9008DCEDF91CF911F91FF90EF90D6
:1006D000DF90CF90BF90AF909F908F9008953FB7DD
:1006E000F89480910B0190910C01A0910D01B091B3
:1006F0000E0126B5A89B05C02F3F19F00196A11D3C
:10070000B11D3FBFBA2FA92F982F8827820F911DA7
:10071000A11DB11DBC01CD0142E0660F771F881FEE
:10072000991F4A95D1F708958F929F92AF92BF92E9
:10073000CF92DF92EF92FF926B017C010E946F03D8
:100740004B015C01C114D104E104F104F1F00E94F9
:100750006F03DC01CB0188199909AA09BB09883EFE
:100760009340A105B10570F321E0C21AD108E10858
:10077000F10888EE880E83E0981EA11CB11CC114FC
:10078000D104E104F10419F7DDCFFF90EF90DF9081
:10079000CF90BF90AF909F908F90089508959091C3
:1007A0000401891324C0E4EAF0E0E4919FEF909300
:1007B0000401E130B9F098F0E230C9F49091700092
:1007C0009D7F9093700091E09093B0009091B10064
:1007D000987F94609093B1001092B30008C010927B
:1007E0006E0005C090916F009D7F90936F0060E058
:1007F0000C947C0083B78E7F83BFE8988EEC93E0E7
:10080000909301018093000108951F920F920FB6FB
:100810000F9211242F933F938F939F93AF93BF9386
:100820008091070190910801A0910901B0910A01FE
:100830003091060123E0230F2D3720F40196A11DEE
:10084000B11D05C026E8230F0296A11DB11D2093FE
:1008500006018093070190930801A0930901B093CA
:100860000A0180910B0190910C01A0910D01B091B2
:100870000E010196A11DB11D80930B0190930C01F7
:10088000A0930D01B0930E01BF91AF919F918F91F5
:100890003F912F910F900FBE0F901F9018951F92B0
:1008A0000F920FB60F9211242F933F934F935F93A4
:1008B0006F937F938F939F93AF93BF93EF93FF9328
:1008C000E0910201F09103010995FF91EF91BF9131
:1008D000AF919F918F917F916F915F914F913F91D8
:1008E0002F910F900FBE0F901F9018951F920F928F
:1008F0000FB60F9211242F933F934F935F936F93F3
:100900007F938F939F93AF93BF93EF93FF93E09168
:100910000001F09101010995FF91EF91BF91AF9115
:100920009F918F917F916F915F914F913F912F9107
:100930000F900FBE0F901F9018951F920F920FB639
:100940000F9211242F933F934F935F936F937F9355
:100950008F939F93AF93BF93EF93FF938091140175
:1009600090911501A0911601B0911701892B8A2B46
:100970008B2B51F190910F01E0911001F091110139
:100980008081892780838091140190911501A09125
:100990001601B0911701181619061A061B06C4F4A1
:1009A0008091140190911501A0911601B091170149
:1009B0000197A109B1098093140190931501A093A7
:1009C0001601B093170104C0809104010E94CF0367
:1009D000FF91EF91BF91AF919F918F917F916F9117
:1009E0005F914F913F912F910F900FBE0F901F90ED
:1009F0001895789484B5826084BD84B5816084BD87
:100A000085B5826085BD85B5816085BD80916E00AC
:100A1000816080936E0010928100809181008260DD
:100A2000809381008091810081608093810080911A
:100A300080008160809380008091B1008460809309
:100A4000B1008091B00081608093B00080917A0005
:100A5000846080937A0080917A00826080937A002B
:100A600080917A00816080937A0080917A0080681A
:100A700080937A001092C10062E082E00E94C90077
:100A800061E080E00E94C90061E081E00E94C9004D
:100A900000E010E08AEFE82E83E0F82E83B7816053
:100AA00083BFF0920101E0920001809169008C7F88
:100AB00080936900E89A83B7817F846083BF8895BB
:100AC000C0E0D0E0CE010E94050164E170E080E06A
:100AD00090E00E9494032596C43081E0D80791F7F6
:100AE000CFEFD0E0CE010E94050164E170E080E02C
:100AF00090E00E9494032597CB3F8FEFD80791F7A2
:100B00008CE291E00E945F016CE271E080E090E095
:100B10000E94940384EF91E00E945F016CE271E017
:100B200080E090E00E94940381E00E94CF030115D1
:100B3000110509F4B3CF0E940000B0CF052E97FB3A
:100B40001EF400940E94B50557FD07D00E94BD0514
:100B500007FC03D04EF40C94B505509540953095A4
:100B600021953F4F4F4F5F4F089590958095709519
:100B700061957F4F8F4F9F4F0895A1E21A2EAA1BB8
:100B8000BB1BFD010DC0AA1FBB1FEE1FFF1FA2173D
:100B9000B307E407F50720F0A21BB30BE40BF50B3A
:100BA000661F771F881F991F1A9469F760957095C3
:100BB000809590959B01AC01BD01CF010895F894FB
:020BC000FFCF65
:060BC200CE03CE03FF008C
:00000001FF
